{
  "_format": "hh-sol-artifact-1",
  "contractName": "stakeEther",
  "sourceName": "contracts/EtherStakingContract.sol",
  "abi": [
    {
      "inputs": [],
      "stateMutability": "payable",
      "type": "constructor"
    },
    {
      "anonymous": false,
      "inputs": [
        {
          "indexed": true,
          "internalType": "address",
          "name": "owner",
          "type": "address"
        },
        {
          "indexed": true,
          "internalType": "uint256",
          "name": "amount",
          "type": "uint256"
        },
        {
          "indexed": true,
          "internalType": "uint256",
          "name": "lockTime",
          "type": "uint256"
        }
      ],
      "name": "depositSuccessful",
      "type": "event"
    },
    {
      "anonymous": false,
      "inputs": [
        {
          "indexed": true,
          "internalType": "uint256",
          "name": "stakedAmount",
          "type": "uint256"
        },
        {
          "indexed": true,
          "internalType": "uint256",
          "name": "reward",
          "type": "uint256"
        },
        {
          "indexed": true,
          "internalType": "uint256",
          "name": "totalAmount",
          "type": "uint256"
        }
      ],
      "name": "withdrawAllFundSuccessful",
      "type": "event"
    },
    {
      "anonymous": false,
      "inputs": [
        {
          "indexed": true,
          "internalType": "uint256",
          "name": "amount",
          "type": "uint256"
        },
        {
          "indexed": true,
          "internalType": "address",
          "name": "_address",
          "type": "address"
        }
      ],
      "name": "withdrawalSuccessful",
      "type": "event"
    },
    {
      "inputs": [],
      "name": "getStakeReward",
      "outputs": [
        {
          "internalType": "uint256",
          "name": "balance",
          "type": "uint256"
        }
      ],
      "stateMutability": "view",
      "type": "function"
    },
    {
      "inputs": [],
      "name": "myStakedBalance",
      "outputs": [
        {
          "internalType": "uint256",
          "name": "",
          "type": "uint256"
        }
      ],
      "stateMutability": "view",
      "type": "function"
    },
    {
      "inputs": [
        {
          "internalType": "uint256",
          "name": "_days",
          "type": "uint256"
        }
      ],
      "name": "stakeDeposit",
      "outputs": [],
      "stateMutability": "payable",
      "type": "function"
    },
    {
      "inputs": [],
      "name": "withdrawAllFunds",
      "outputs": [],
      "stateMutability": "nonpayable",
      "type": "function"
    },
    {
      "inputs": [],
      "name": "withdrawStakedAmount",
      "outputs": [],
      "stateMutability": "nonpayable",
      "type": "function"
    }
  ],
  "bytecode": "0x6080604052336000806101000a81548173ffffffffffffffffffffffffffffffffffffffff021916908373ffffffffffffffffffffffffffffffffffffffff160217905550346001819055506114a98061005a6000396000f3fe60806040526004361061004a5760003560e01c80632603faf91461004f57806349649fbf146100665780638fb7094a1461007d578063a1ad3ab2146100a8578063b7bec020146100c4575b600080fd5b34801561005b57600080fd5b506100646100ef565b005b34801561007257600080fd5b5061007b610503565b005b34801561008957600080fd5b506100926109d0565b60405161009f9190610e72565b60405180910390f35b6100c260048036038101906100bd9190610ebe565b610a17565b005b3480156100d057600080fd5b506100d9610cf1565b6040516100e69190610e72565b60405180910390f35b600073ffffffffffffffffffffffffffffffffffffffff163373ffffffffffffffffffffffffffffffffffffffff160361015e576040517f08c379a000000000000000000000000000000000000000000000000000000000815260040161015590610f48565b60405180910390fd5b42600260003373ffffffffffffffffffffffffffffffffffffffff1673ffffffffffffffffffffffffffffffffffffffff1681526020019081526020016000206000015411156101e3576040517f08c379a00000000000000000000000000000000000000000000000000000000081526004016101da90610fda565b60405180910390fd5b6000600260003373ffffffffffffffffffffffffffffffffffffffff1673ffffffffffffffffffffffffffffffffffffffff1681526020019081526020016000206001015411610268576040517f08c379a000000000000000000000000000000000000000000000000000000000815260040161025f9061106c565b60405180910390fd5b6000600260003373ffffffffffffffffffffffffffffffffffffffff1673ffffffffffffffffffffffffffffffffffffffff168152602001908152602001600020600101549050600260003373ffffffffffffffffffffffffffffffffffffffff1673ffffffffffffffffffffffffffffffffffffffff16815260200190815260200160002060010154600260003373ffffffffffffffffffffffffffffffffffffffff1673ffffffffffffffffffffffffffffffffffffffff1681526020019081526020016000206001015461033f91906110bb565b600260003373ffffffffffffffffffffffffffffffffffffffff1673ffffffffffffffffffffffffffffffffffffffff1681526020019081526020016000206001018190555060003373ffffffffffffffffffffffffffffffffffffffff16826040516103ab90611120565b60006040518083038185875af1925050503d80600081146103e8576040519150601f19603f3d011682016040523d82523d6000602084013e6103ed565b606091505b5050905080610431576040517f08c379a000000000000000000000000000000000000000000000000000000000815260040161042890611181565b60405180910390fd5b6000600260003373ffffffffffffffffffffffffffffffffffffffff1673ffffffffffffffffffffffffffffffffffffffff168152602001908152602001600020600001819055503373ffffffffffffffffffffffffffffffffffffffff16600260003373ffffffffffffffffffffffffffffffffffffffff1673ffffffffffffffffffffffffffffffffffffffff168152602001908152602001600020600101547f792e47cb018dba4a9425c92940e7de830fabd755d42f8245d2b28d06b8a94c7660405160405180910390a35050565b600073ffffffffffffffffffffffffffffffffffffffff163373ffffffffffffffffffffffffffffffffffffffff1603610572576040517f08c379a000000000000000000000000000000000000000000000000000000000815260040161056990610f48565b60405180910390fd5b42600260003373ffffffffffffffffffffffffffffffffffffffff1673ffffffffffffffffffffffffffffffffffffffff1681526020019081526020016000206000015411156105f7576040517f08c379a00000000000000000000000000000000000000000000000000000000081526004016105ee90610fda565b60405180910390fd5b6000600260003373ffffffffffffffffffffffffffffffffffffffff1673ffffffffffffffffffffffffffffffffffffffff168152602001908152602001600020600101541161067c576040517f08c379a00000000000000000000000000000000000000000000000000000000081526004016106739061106c565b60405180910390fd5b6000600360003373ffffffffffffffffffffffffffffffffffffffff1673ffffffffffffffffffffffffffffffffffffffff16815260200190815260200160002054600260003373ffffffffffffffffffffffffffffffffffffffff1673ffffffffffffffffffffffffffffffffffffffff1681526020019081526020016000206001015461070b91906111a1565b90506000600360003373ffffffffffffffffffffffffffffffffffffffff1673ffffffffffffffffffffffffffffffffffffffff16815260200190815260200160002081905550600260003373ffffffffffffffffffffffffffffffffffffffff1673ffffffffffffffffffffffffffffffffffffffff16815260200190815260200160002060010154600260003373ffffffffffffffffffffffffffffffffffffffff1673ffffffffffffffffffffffffffffffffffffffff168152602001908152602001600020600101546107e291906110bb565b600260003373ffffffffffffffffffffffffffffffffffffffff1673ffffffffffffffffffffffffffffffffffffffff1681526020019081526020016000206001018190555060003373ffffffffffffffffffffffffffffffffffffffff168260405161084e90611120565b60006040518083038185875af1925050503d806000811461088b576040519150601f19603f3d011682016040523d82523d6000602084013e610890565b606091505b50509050806108d4576040517f08c379a00000000000000000000000000000000000000000000000000000000081526004016108cb90611181565b60405180910390fd5b6000600260003373ffffffffffffffffffffffffffffffffffffffff1673ffffffffffffffffffffffffffffffffffffffff1681526020019081526020016000206000018190555081600360003373ffffffffffffffffffffffffffffffffffffffff1673ffffffffffffffffffffffffffffffffffffffff16815260200190815260200160002054600260003373ffffffffffffffffffffffffffffffffffffffff1673ffffffffffffffffffffffffffffffffffffffff168152602001908152602001600020600101547f07d22063a7407e9ecaa680c844bf5838b4b0ab1d147ccba46c3b335e0e8e9c5c60405160405180910390a45050565b6000600360003373ffffffffffffffffffffffffffffffffffffffff1673ffffffffffffffffffffffffffffffffffffffff16815260200190815260200160002054905090565b600073ffffffffffffffffffffffffffffffffffffffff163373ffffffffffffffffffffffffffffffffffffffff1603610a86576040517f08c379a0000000000000000000000000000000000000000000000000000000008152600401610a7d90610f48565b60405180910390fd5b6000600260003373ffffffffffffffffffffffffffffffffffffffff1673ffffffffffffffffffffffffffffffffffffffff1681526020019081526020016000206000015414610b0b576040517f08c379a0000000000000000000000000000000000000000000000000000000008152600401610b0290611221565b60405180910390fd5b60003411610b4e576040517f08c379a0000000000000000000000000000000000000000000000000000000008152600401610b459061128d565b60405180910390fd5b60008111610b91576040517f08c379a0000000000000000000000000000000000000000000000000000000008152600401610b889061131f565b60405180910390fd5b6000603c80601884610ba3919061133f565b610bad919061133f565b610bb7919061133f565b42610bc291906111a1565b905034600260003373ffffffffffffffffffffffffffffffffffffffff1673ffffffffffffffffffffffffffffffffffffffff16815260200190815260200160002060010154610c1291906111a1565b600260003373ffffffffffffffffffffffffffffffffffffffff1673ffffffffffffffffffffffffffffffffffffffff1681526020019081526020016000206001018190555080600260003373ffffffffffffffffffffffffffffffffffffffff1673ffffffffffffffffffffffffffffffffffffffff16815260200190815260200160002060000181905550610ca882610d3b565b80343373ffffffffffffffffffffffffffffffffffffffff167f8f68355dac7eb1c6bea6756f2fc691ac09c4c44c8a9635f2d7379b8d44eed9dc60405160405180910390a45050565b6000600260003373ffffffffffffffffffffffffffffffffffffffff1673ffffffffffffffffffffffffffffffffffffffff16815260200190815260200160002060010154905090565b6000600260003373ffffffffffffffffffffffffffffffffffffffff1673ffffffffffffffffffffffffffffffffffffffff16815260200190815260200160002060010154905060008262030d4083610d9491906113b0565b610d9e919061133f565b90508060016000828254610db291906110bb565b92505081905550600154811115610dfe576040517f08c379a0000000000000000000000000000000000000000000000000000000008152600401610df590611453565b60405180910390fd5b80600360003373ffffffffffffffffffffffffffffffffffffffff1673ffffffffffffffffffffffffffffffffffffffff1681526020019081526020016000206000828254610e4d91906111a1565b92505081905550505050565b6000819050919050565b610e6c81610e59565b82525050565b6000602082019050610e876000830184610e63565b92915050565b600080fd5b610e9b81610e59565b8114610ea657600080fd5b50565b600081359050610eb881610e92565b92915050565b600060208284031215610ed457610ed3610e8d565b5b6000610ee284828501610ea9565b91505092915050565b600082825260208201905092915050565b7f5a65726f20616464726573732064657465637465642100000000000000000000600082015250565b6000610f32601683610eeb565b9150610f3d82610efc565b602082019050919050565b60006020820190508181036000830152610f6181610f25565b9050919050565b7f54727920616761696e206166746572207374616b65206c6f636b2074696d652060008201527f656e6c6170736500000000000000000000000000000000000000000000000000602082015250565b6000610fc4602783610eeb565b9150610fcf82610f68565b604082019050919050565b60006020820190508181036000830152610ff381610fb7565b9050919050565b7f54686973206163636f756e7420646f6573206e6f742065786974206f7220626160008201527f6c616e636520686173206265656e206465647563746564210000000000000000602082015250565b6000611056603883610eeb565b915061106182610ffa565b604082019050919050565b6000602082019050818103600083015261108581611049565b9050919050565b7f4e487b7100000000000000000000000000000000000000000000000000000000600052601160045260246000fd5b60006110c682610e59565b91506110d183610e59565b92508282039050818111156110e9576110e861108c565b5b92915050565b600081905092915050565b50565b600061110a6000836110ef565b9150611115826110fa565b600082019050919050565b600061112b826110fd565b9150819050919050565b7f5769746864726177616c206661696c6564210000000000000000000000000000600082015250565b600061116b601283610eeb565b915061117682611135565b602082019050919050565b6000602082019050818103600083015261119a8161115e565b9050919050565b60006111ac82610e59565b91506111b783610e59565b92508282019050808211156111cf576111ce61108c565b5b92915050565b7f596f75206861766520616e20756e6578706972696564207374616b696e670000600082015250565b600061120b601e83610eeb565b9150611216826111d5565b602082019050919050565b6000602082019050818103600083015261123a816111fe565b9050919050565b7f596f752063616e6e6f74206465706f736974207a65726f000000000000000000600082015250565b6000611277601783610eeb565b915061128282611241565b602082019050919050565b600060208201905081810360008301526112a68161126a565b9050919050565b7f596f75206861766520746f207374616b6520666f72206174206c65617374206f60008201527f6e65206461790000000000000000000000000000000000000000000000000000602082015250565b6000611309602683610eeb565b9150611314826112ad565b604082019050919050565b60006020820190508181036000830152611338816112fc565b9050919050565b600061134a82610e59565b915061135583610e59565b925082820261136381610e59565b9150828204841483151761137a5761137961108c565b5b5092915050565b7f4e487b7100000000000000000000000000000000000000000000000000000000600052601260045260246000fd5b60006113bb82610e59565b91506113c683610e59565b9250826113d6576113d5611381565b5b828204905092915050565b7f52657761726420457863656564656420616e64205374616b696e67206973204360008201527f6c6f736564000000000000000000000000000000000000000000000000000000602082015250565b600061143d602583610eeb565b9150611448826113e1565b604082019050919050565b6000602082019050818103600083015261146c81611430565b905091905056fea2646970667358221220ddce6a973d355eabbd0e0dfd2514dc21053caa38cdf767fff2b1f68a6b766b3564736f6c63430008180033",
  "linkReferences": {},
  "deployedLinkReferences": {}
}